:100000000C945C000C9479000C9479000C947900A9
:100010000C9479000C9479000C9479000C9479007C
:100020000C9479000C9479000C9479000C9479006C
:100030000C9479000C9479000C9479000C9479005C
:100040000C9469010C9479000C9479000C9479005B
:100050000C9479000C9479000C9479000C9479003C
:100060000C9479000C947900000000080002010053
:100070000003040700000000000000000000000072
:10008000250028002B0000000000240027002A0083
:10009000040404040404040402020202020203032E
:1000A0000303030301020408102040800102040836
:1000B000102001020408102011241FBECFEFD8E049
:1000C000DEBFCDBF11E0A0E0B1E0EAE7F4E002C09E
:1000D00005900D92A03EB107D9F721E0A0EEB1E066
:1000E00001C01D92A93EB207E1F70E94B3010C9432
:1000F0003B020C94000090E0FC01EC55FF4F249172
:1001000080579F4FFC018491882399F090E0880FDD
:10011000991FFC01EA57FF4FA591B491FC01E458E7
:10012000FF4F859194918FB7F894EC91E22BEC936B
:100130008FBF089590E0FC01E859FF4F2491FC0126
:10014000EC55FF4F3491FC01E057FF4FE491EE2353
:10015000C9F0222339F0233001F1A8F4213019F13C
:10016000223029F1F0E0EE0FFF1FE458FF4FA59178
:10017000B4918FB7F894EC91611126C030953E236D
:100180003C938FBF08952730A9F02830C9F0243060
:1001900049F7809180008F7D03C0809180008F7728
:1001A00080938000DFCF84B58F7784BDDBCF84B5AB
:1001B0008F7DFBCF8091B0008F778093B000D2CF3E
:1001C0008091B0008F7DF9CF3E2BDACF2F923F92F6
:1001D0004F925F926F927F928F929F92AF92BF9257
:1001E000CF92DF92EF92FF920F931F93CF93DF9303
:1001F000382E292E8FB7F8944090E5015090E601F3
:100200006090E7017090E8018FBF2BEE822E2AE00C
:10021000922E2FB7F8948091E5019091E601A0917C
:10022000E701B091E8012FBF84199509A609B70924
:10023000843F9140A105B105C8F5C32DD22D90EDA5
:10024000E92E91E0F92E00ED11E0F80180810E5FBA
:100250001F4F61E00E949A00F1E0003E1F07A9F7DE
:1002600080ECC82E81E0D82E5E0128E0A20EB11CE1
:100270009991F6018081F2E0CF0ED11C60E09130BF
:1002800009F061E00E949A00AC16BD0689F7F701FB
:100290008081F2E0EF0EF11C60E00E949A00C40140
:1002A0000197F1F70E151F0571F6B3CFDF91CF91CE
:1002B0001F910F91FF90EF90DF90CF90BF90AF9084
:1002C0009F908F907F906F905F904F903F902F9076
:1002D00008951F920F920FB60F9211242F933F9300
:1002E0008F939F93AF93BF938091E5019091E60127
:1002F000A091E701B091E8013091E40123E0230FE0
:100300002D3758F50196A11DB11D2093E40180936E
:10031000E5019093E601A093E701B093E801809195
:10032000E0019091E101A091E201B091E301019619
:10033000A11DB11D8093E0019093E101A093E20122
:10034000B093E301BF91AF919F918F913F912F9116
:100350000F900FBE0F901F90189526E8230F02965E
:10036000A11DB11DD2CF789484B5826084BD84B5BF
:10037000816084BD85B5826085BD85B5816085BDA0
:1003800080916E00816080936E0010928100809158
:1003900081008260809381008091810081608093E0
:1003A0008100809180008160809380008091B10005
:1003B00084608093B1008091B00081608093B00030
:1003C00080917A00846080937A0080917A008260C4
:1003D00080937A0080917A00816080937A00809186
:1003E0007A00806880937A001092C100C0EDD1E05D
:1003F00080ECE82E81E0F82E67018E01F801808103
:100400000E5F1F4F0E947B00F6018081F2E0CF0E4D
:10041000D11C0E947B0081E0003E180779F788819B
:10042000229661E00E949A00F7018081F2E0EF0ECF
:10043000F11C61E00E949A0081E0C03ED80779F784
:10044000C0E0D0E080E891E00E94E60080E491E026
:100450000E94E60080E891E00E94E60080E491E0DE
:100460000E94E60080E091E00E94E600209751F3B0
:0A0470000E940000E7CFF894FFCFD0
:10047A00010000000000010001000000000100006E
:10048A00010000000100000001010101000000005C
:10049A00010000000100000001000000000100004E
:1004AA000100000000000100000000000000000040
:1004BA000101010101010101010000000000000029
:1004CA00010101010101000001000000000000001B
:1004DA00010101010101000001000000000000000B
:1004EA0001010101010101010000000000000000FA
:1004FA0001010101010101010000000100000000E9
:10050A0000000001000000000000000100000000DF
:10051A0000000001000000000000000100000000CF
:10052A0000000001000000000000000100000000BF
:10053A000A000B000C000D000E000F001000110045
:10054A000200030004000500060007000800090075
:00000001FF
